{
  "_format": "hh-sol-artifact-1",
  "contractName": "crowdFunding",
  "sourceName": "contracts/crowdFunding.sol",
  "abi": [
    {
      "inputs": [],
      "stateMutability": "nonpayable",
      "type": "constructor"
    },
    {
      "anonymous": false,
      "inputs": [
        {
          "indexed": false,
          "internalType": "uint256",
          "name": "campaignID",
          "type": "uint256"
        }
      ],
      "name": "CampaignCreated",
      "type": "event"
    },
    {
      "anonymous": false,
      "inputs": [
        {
          "indexed": false,
          "internalType": "uint256",
          "name": "campaignID",
          "type": "uint256"
        }
      ],
      "name": "CampaignEnded",
      "type": "event"
    },
    {
      "anonymous": false,
      "inputs": [
        {
          "indexed": false,
          "internalType": "uint256",
          "name": "campaignID",
          "type": "uint256"
        }
      ],
      "name": "DonationReceived",
      "type": "event"
    },
    {
      "inputs": [],
      "name": "adminWithdraw",
      "outputs": [],
      "stateMutability": "nonpayable",
      "type": "function"
    },
    {
      "inputs": [
        {
          "internalType": "uint256",
          "name": "",
          "type": "uint256"
        }
      ],
      "name": "campaigns",
      "outputs": [
        {
          "internalType": "string",
          "name": "title",
          "type": "string"
        },
        {
          "internalType": "string",
          "name": "description",
          "type": "string"
        },
        {
          "internalType": "address",
          "name": "benefactor",
          "type": "address"
        },
        {
          "internalType": "uint256",
          "name": "goal",
          "type": "uint256"
        },
        {
          "internalType": "uint256",
          "name": "duration",
          "type": "uint256"
        },
        {
          "internalType": "uint256",
          "name": "deadline",
          "type": "uint256"
        },
        {
          "internalType": "uint256",
          "name": "amountRaised",
          "type": "uint256"
        }
      ],
      "stateMutability": "view",
      "type": "function"
    },
    {
      "inputs": [
        {
          "internalType": "string",
          "name": "_title",
          "type": "string"
        },
        {
          "internalType": "string",
          "name": "_description",
          "type": "string"
        },
        {
          "internalType": "address",
          "name": "_benefactor",
          "type": "address"
        },
        {
          "internalType": "uint256",
          "name": "_goal",
          "type": "uint256"
        },
        {
          "internalType": "uint256",
          "name": "duration",
          "type": "uint256"
        }
      ],
      "name": "createCampaign",
      "outputs": [],
      "stateMutability": "nonpayable",
      "type": "function"
    },
    {
      "inputs": [
        {
          "internalType": "uint256",
          "name": "_campaignId",
          "type": "uint256"
        }
      ],
      "name": "donate",
      "outputs": [],
      "stateMutability": "payable",
      "type": "function"
    },
    {
      "inputs": [],
      "name": "endCampaign",
      "outputs": [],
      "stateMutability": "nonpayable",
      "type": "function"
    }
  ],
  "bytecode": "0x6080604052348015600f57600080fd5b50336000806101000a81548173ffffffffffffffffffffffffffffffffffffffff021916908373ffffffffffffffffffffffffffffffffffffffff1602179055506111018061005f6000396000f3fe60806040526004361061004a5760003560e01c8063141961bc1461004f57806371aac7f9146100925780639304d124146100a9578063f14faf6f146100d2578063f18d20be146100ee575b600080fd5b34801561005b57600080fd5b50610076600480360381019061007191906108b7565b610105565b60405161008997969594939291906109c4565b60405180910390f35b34801561009e57600080fd5b506100a7610287565b005b3480156100b557600080fd5b506100d060048036038101906100cb9190610ba2565b61044d565b005b6100ec60048036038101906100e791906108b7565b61055b565b005b3480156100fa57600080fd5b506101036106cc565b005b6002818154811061011557600080fd5b906000526020600020906007020160009150905080600001805461013890610c84565b80601f016020809104026020016040519081016040528092919081815260200182805461016490610c84565b80156101b15780601f10610186576101008083540402835291602001916101b1565b820191906000526020600020905b81548152906001019060200180831161019457829003601f168201915b5050505050908060010180546101c690610c84565b80601f01602080910402602001604051908101604052809291908181526020018280546101f290610c84565b801561023f5780601f106102145761010080835404028352916020019161023f565b820191906000526020600020905b81548152906001019060200180831161022257829003601f168201915b5050505050908060020160009054906101000a900473ffffffffffffffffffffffffffffffffffffffff16908060030154908060040154908060050154908060060154905087565b60005b60028054905081101561044a5742600282815481106102ac576102ab610cb5565b5b906000526020600020906007020160050154111561043d57600180600283815481106102db576102da610cb5565b5b90600052602060002090600702016000016040516102f99190610d87565b908152602001604051809103902060006101000a81548160ff02191690831515021790555060006002828154811061033457610333610cb5565b5b906000526020600020906007020160060154905060006002838154811061035e5761035d610cb5565b5b906000526020600020906007020160020160009054906101000a900473ffffffffffffffffffffffffffffffffffffffff1673ffffffffffffffffffffffffffffffffffffffff16826040516103b390610dcf565b60006040518083038185875af1925050503d80600081146103f0576040519150601f19603f3d011682016040523d82523d6000602084013e6103f5565b606091505b505090508061040357600080fd5b7f9874a7967abbb8701e946ae29391c091f59962f042ba4b5d99b1ed7f2e2e3e55836040516104329190610de4565b60405180910390a150505b808060010191505061028a565b50565b600060026001816001815401808255809150500390600052602060002090600702019050858160000190816104829190610f96565b50848160010190816104949190610f96565b50838160020160006101000a81548173ffffffffffffffffffffffffffffffffffffffff021916908373ffffffffffffffffffffffffffffffffffffffff16021790555082816003018190555081816004018190555081426104f69190611097565b81600501819055506000831161050b57600080fd5b7fbc0a5edd152fa5b886dcae82c5c109d113708653b4b9c0224549ccdf715af94e600160028054905061053e9190611097565b60405161054b9190610de4565b60405180910390a1505050505050565b60005b6002805490508110156106915742600282815481106105805761057f610cb5565b5b9060005260206000209060070201600501541061059c57600080fd5b6001600283815481106105b2576105b1610cb5565b5b90600052602060002090600702016000016040516105d09190610d87565b908152602001604051809103902060009054906101000a900460ff16156105f657600080fd5b6002828154811061060a57610609610cb5565b5b906000526020600020906007020160030154600282815481106106305761062f610cb5565b5b9060005260206000209060070201600301540361068457346002828154811061065c5761065b610cb5565b5b9060005260206000209060070201600601600082825461067c9190611097565b925050819055505b808060010191505061055e565b507f9874a7967abbb8701e946ae29391c091f59962f042ba4b5d99b1ed7f2e2e3e55816040516106c19190610de4565b60405180910390a150565b60008054906101000a900473ffffffffffffffffffffffffffffffffffffffff1673ffffffffffffffffffffffffffffffffffffffff163373ffffffffffffffffffffffffffffffffffffffff161461072457600080fd5b60005b60028054905081101561086a5760016002828154811061074a57610749610cb5565b5b90600052602060002090600702016000016040516107689190610d87565b908152602001604051809103902060009054906101000a900460ff1680156107b557506000600282815481106107a1576107a0610cb5565b5b906000526020600020906007020160060154115b1561085d576000600282815481106107d0576107cf610cb5565b5b906000526020600020906007020160060154905060003373ffffffffffffffffffffffffffffffffffffffff168260405161080a90610dcf565b60006040518083038185875af1925050503d8060008114610847576040519150601f19603f3d011682016040523d82523d6000602084013e61084c565b606091505b505090508061085a57600080fd5b50505b8080600101915050610727565b50565b6000604051905090565b600080fd5b600080fd5b6000819050919050565b61089481610881565b811461089f57600080fd5b50565b6000813590506108b18161088b565b92915050565b6000602082840312156108cd576108cc610877565b5b60006108db848285016108a2565b91505092915050565b600081519050919050565b600082825260208201905092915050565b60005b8381101561091e578082015181840152602081019050610903565b60008484015250505050565b6000601f19601f8301169050919050565b6000610946826108e4565b61095081856108ef565b9350610960818560208601610900565b6109698161092a565b840191505092915050565b600073ffffffffffffffffffffffffffffffffffffffff82169050919050565b600061099f82610974565b9050919050565b6109af81610994565b82525050565b6109be81610881565b82525050565b600060e08201905081810360008301526109de818a61093b565b905081810360208301526109f2818961093b565b9050610a0160408301886109a6565b610a0e60608301876109b5565b610a1b60808301866109b5565b610a2860a08301856109b5565b610a3560c08301846109b5565b98975050505050505050565b600080fd5b600080fd5b7f4e487b7100000000000000000000000000000000000000000000000000000000600052604160045260246000fd5b610a838261092a565b810181811067ffffffffffffffff82111715610aa257610aa1610a4b565b5b80604052505050565b6000610ab561086d565b9050610ac18282610a7a565b919050565b600067ffffffffffffffff821115610ae157610ae0610a4b565b5b610aea8261092a565b9050602081019050919050565b82818337600083830152505050565b6000610b19610b1484610ac6565b610aab565b905082815260208101848484011115610b3557610b34610a46565b5b610b40848285610af7565b509392505050565b600082601f830112610b5d57610b5c610a41565b5b8135610b6d848260208601610b06565b91505092915050565b610b7f81610994565b8114610b8a57600080fd5b50565b600081359050610b9c81610b76565b92915050565b600080600080600060a08688031215610bbe57610bbd610877565b5b600086013567ffffffffffffffff811115610bdc57610bdb61087c565b5b610be888828901610b48565b955050602086013567ffffffffffffffff811115610c0957610c0861087c565b5b610c1588828901610b48565b9450506040610c2688828901610b8d565b9350506060610c37888289016108a2565b9250506080610c48888289016108a2565b9150509295509295909350565b7f4e487b7100000000000000000000000000000000000000000000000000000000600052602260045260246000fd5b60006002820490506001821680610c9c57607f821691505b602082108103610caf57610cae610c55565b5b50919050565b7f4e487b7100000000000000000000000000000000000000000000000000000000600052603260045260246000fd5b600081905092915050565b60008190508160005260206000209050919050565b60008154610d1181610c84565b610d1b8186610ce4565b94506001821660008114610d365760018114610d4b57610d7e565b60ff1983168652811515820286019350610d7e565b610d5485610cef565b60005b83811015610d7657815481890152600182019150602081019050610d57565b838801955050505b50505092915050565b6000610d938284610d04565b915081905092915050565b600081905092915050565b50565b6000610db9600083610d9e565b9150610dc482610da9565b600082019050919050565b6000610dda82610dac565b9150819050919050565b6000602082019050610df960008301846109b5565b92915050565b60006020601f8301049050919050565b600082821b905092915050565b600060088302610e4c7fffffffffffffffffffffffffffffffffffffffffffffffffffffffffffffffff82610e0f565b610e568683610e0f565b95508019841693508086168417925050509392505050565b6000819050919050565b6000610e93610e8e610e8984610881565b610e6e565b610881565b9050919050565b6000819050919050565b610ead83610e78565b610ec1610eb982610e9a565b848454610e1c565b825550505050565b600090565b610ed6610ec9565b610ee1818484610ea4565b505050565b5b81811015610f0557610efa600082610ece565b600181019050610ee7565b5050565b601f821115610f4a57610f1b81610cef565b610f2484610dff565b81016020851015610f33578190505b610f47610f3f85610dff565b830182610ee6565b50505b505050565b600082821c905092915050565b6000610f6d60001984600802610f4f565b1980831691505092915050565b6000610f868383610f5c565b9150826002028217905092915050565b610f9f826108e4565b67ffffffffffffffff811115610fb857610fb7610a4b565b5b610fc28254610c84565b610fcd828285610f09565b600060209050601f8311600181146110005760008415610fee578287015190505b610ff88582610f7a565b865550611060565b601f19841661100e86610cef565b60005b8281101561103657848901518255600182019150602085019450602081019050611011565b86831015611053578489015161104f601f891682610f5c565b8355505b6001600288020188555050505b505050505050565b7f4e487b7100000000000000000000000000000000000000000000000000000000600052601160045260246000fd5b60006110a282610881565b91506110ad83610881565b92508282019050808211156110c5576110c4611068565b5b9291505056fea2646970667358221220f2ed2968845520fd1b69856945d8a263ffa024fdc668e91ac63aacf7c630ffd364736f6c634300081b0033",
  "linkReferences": {},
  "deployedLinkReferences": {}
}