{
  "_format": "hh-sol-artifact-1",
  "contractName": "FundMe",
  "sourceName": "contracts/FundMe.sol",
  "abi": [
    {
      "inputs": [
        {
          "internalType": "address",
          "name": "priceFeed",
          "type": "address"
        }
      ],
      "stateMutability": "nonpayable",
      "type": "constructor"
    },
    {
      "inputs": [],
      "name": "FundMe__NotOwner",
      "type": "error"
    },
    {
      "stateMutability": "payable",
      "type": "fallback"
    },
    {
      "inputs": [],
      "name": "MINIMUM_USD",
      "outputs": [
        {
          "internalType": "uint256",
          "name": "",
          "type": "uint256"
        }
      ],
      "stateMutability": "view",
      "type": "function"
    },
    {
      "inputs": [],
      "name": "cheaperWithdraw",
      "outputs": [],
      "stateMutability": "nonpayable",
      "type": "function"
    },
    {
      "inputs": [],
      "name": "fund",
      "outputs": [],
      "stateMutability": "payable",
      "type": "function"
    },
    {
      "inputs": [
        {
          "internalType": "address",
          "name": "fundingAddress",
          "type": "address"
        }
      ],
      "name": "getAddressToAmountFunded",
      "outputs": [
        {
          "internalType": "uint256",
          "name": "",
          "type": "uint256"
        }
      ],
      "stateMutability": "view",
      "type": "function"
    },
    {
      "inputs": [
        {
          "internalType": "uint256",
          "name": "index",
          "type": "uint256"
        }
      ],
      "name": "getFunder",
      "outputs": [
        {
          "internalType": "address",
          "name": "",
          "type": "address"
        }
      ],
      "stateMutability": "view",
      "type": "function"
    },
    {
      "inputs": [],
      "name": "getOwner",
      "outputs": [
        {
          "internalType": "address",
          "name": "",
          "type": "address"
        }
      ],
      "stateMutability": "view",
      "type": "function"
    },
    {
      "inputs": [],
      "name": "getVersion",
      "outputs": [
        {
          "internalType": "uint256",
          "name": "",
          "type": "uint256"
        }
      ],
      "stateMutability": "view",
      "type": "function"
    },
    {
      "inputs": [],
      "name": "withdraw",
      "outputs": [],
      "stateMutability": "nonpayable",
      "type": "function"
    },
    {
      "stateMutability": "payable",
      "type": "receive"
    }
  ],
  "bytecode": "0x60a060405234801561001057600080fd5b5060405161119538038061119583398181016040528101906100329190610110565b3373ffffffffffffffffffffffffffffffffffffffff1660808173ffffffffffffffffffffffffffffffffffffffff168152505080600260006101000a81548173ffffffffffffffffffffffffffffffffffffffff021916908373ffffffffffffffffffffffffffffffffffffffff1602179055505061013d565b600080fd5b600073ffffffffffffffffffffffffffffffffffffffff82169050919050565b60006100dd826100b2565b9050919050565b6100ed816100d2565b81146100f857600080fd5b50565b60008151905061010a816100e4565b92915050565b600060208284031215610126576101256100ad565b5b6000610134848285016100fb565b91505092915050565b60805161102f610166600039600081816103e70152818161062f0152610655015261102f6000f3fe60806040526004361061007f5760003560e01c8063893d20e81161004e578063893d20e814610142578063b60d42881461016d578063be2693f014610177578063d7b4750c1461018e5761008e565b80630343fb25146100985780630d8e6e2c146100d55780633ccfd60b146101005780636b69a592146101175761008e565b3661008e5761008c6101cb565b005b6100966101cb565b005b3480156100a457600080fd5b506100bf60048036038101906100ba9190610ab0565b610304565b6040516100cc9190610af6565b60405180910390f35b3480156100e157600080fd5b506100ea61034d565b6040516100f79190610af6565b60405180910390f35b34801561010c57600080fd5b506101156103e5565b005b34801561012357600080fd5b5061012c61061f565b6040516101399190610af6565b60405180910390f35b34801561014e57600080fd5b5061015761062b565b6040516101649190610b20565b60405180910390f35b6101756101cb565b005b34801561018357600080fd5b5061018c610653565b005b34801561019a57600080fd5b506101b560048036038101906101b09190610b67565b610892565b6040516101c29190610b20565b60405180910390f35b674563918244f40000610209600260009054906101000a900473ffffffffffffffffffffffffffffffffffffffff16346108d990919063ffffffff16565b11610249576040517f08c379a000000000000000000000000000000000000000000000000000000000815260040161024090610c17565b60405180910390fd5b6000339080600181540180825580915050600190039060005260206000200160009091909190916101000a81548173ffffffffffffffffffffffffffffffffffffffff021916908373ffffffffffffffffffffffffffffffffffffffff16021790555034600160003373ffffffffffffffffffffffffffffffffffffffff1673ffffffffffffffffffffffffffffffffffffffff16815260200190815260200160002060008282546102fb9190610c66565b92505081905550565b6000600160008373ffffffffffffffffffffffffffffffffffffffff1673ffffffffffffffffffffffffffffffffffffffff168152602001908152602001600020549050919050565b6000600260009054906101000a900473ffffffffffffffffffffffffffffffffffffffff1673ffffffffffffffffffffffffffffffffffffffff166354fd4d506040518163ffffffff1660e01b8152600401602060405180830381865afa1580156103bc573d6000803e3d6000fd5b505050506040513d601f19601f820116820180604052508101906103e09190610caf565b905090565b7f000000000000000000000000000000000000000000000000000000000000000073ffffffffffffffffffffffffffffffffffffffff163373ffffffffffffffffffffffffffffffffffffffff161461046a576040517f579610db00000000000000000000000000000000000000000000000000000000815260040160405180910390fd5b60005b60008054905081101561050f57600080828154811061048f5761048e610cdc565b5b9060005260206000200160009054906101000a900473ffffffffffffffffffffffffffffffffffffffff1690506000600160008373ffffffffffffffffffffffffffffffffffffffff1673ffffffffffffffffffffffffffffffffffffffff1681526020019081526020016000208190555050808060010191505061046d565b50600067ffffffffffffffff81111561052b5761052a610d0b565b5b6040519080825280602002602001820160405280156105595781602001602082028036833780820191505090505b506000908051906020019061056f9291906109a6565b5060003373ffffffffffffffffffffffffffffffffffffffff164760405161059690610d6b565b60006040518083038185875af1925050503d80600081146105d3576040519150601f19603f3d011682016040523d82523d6000602084013e6105d8565b606091505b505090508061061c576040517f08c379a000000000000000000000000000000000000000000000000000000000815260040161061390610dcc565b60405180910390fd5b50565b674563918244f4000081565b60007f0000000000000000000000000000000000000000000000000000000000000000905090565b7f000000000000000000000000000000000000000000000000000000000000000073ffffffffffffffffffffffffffffffffffffffff163373ffffffffffffffffffffffffffffffffffffffff16146106d8576040517f579610db00000000000000000000000000000000000000000000000000000000815260040160405180910390fd5b60008080549050905060005b8181101561078157600080828154811061070157610700610cdc565b5b9060005260206000200160009054906101000a900473ffffffffffffffffffffffffffffffffffffffff1690506000600160008373ffffffffffffffffffffffffffffffffffffffff1673ffffffffffffffffffffffffffffffffffffffff168152602001908152602001600020819055505080806001019150506106e4565b50600067ffffffffffffffff81111561079d5761079c610d0b565b5b6040519080825280602002602001820160405280156107cb5781602001602082028036833780820191505090505b50600090805190602001906107e19291906109a6565b5060003373ffffffffffffffffffffffffffffffffffffffff164760405161080890610d6b565b60006040518083038185875af1925050503d8060008114610845576040519150601f19603f3d011682016040523d82523d6000602084013e61084a565b606091505b505090508061088e576040517f08c379a000000000000000000000000000000000000000000000000000000000815260040161088590610dcc565b60405180910390fd5b5050565b60008082815481106108a7576108a6610cdc565b5b9060005260206000200160009054906101000a900473ffffffffffffffffffffffffffffffffffffffff169050919050565b6000806108e583610915565b90506000670de0b6b3a764000085836108fe9190610dec565b6109089190610e5d565b9050809250505092915050565b6000808273ffffffffffffffffffffffffffffffffffffffff1663feaf968c6040518163ffffffff1660e01b815260040160a060405180830381865afa158015610963573d6000803e3d6000fd5b505050506040513d601f19601f820116820180604052508101906109879190610f06565b5050509150506402540be4008161099e9190610f81565b915050919050565b828054828255906000526020600020908101928215610a1f579160200282015b82811115610a1e5782518260006101000a81548173ffffffffffffffffffffffffffffffffffffffff021916908373ffffffffffffffffffffffffffffffffffffffff160217905550916020019190600101906109c6565b5b509050610a2c9190610a30565b5090565b5b80821115610a49576000816000905550600101610a31565b5090565b600080fd5b600073ffffffffffffffffffffffffffffffffffffffff82169050919050565b6000610a7d82610a52565b9050919050565b610a8d81610a72565b8114610a9857600080fd5b50565b600081359050610aaa81610a84565b92915050565b600060208284031215610ac657610ac5610a4d565b5b6000610ad484828501610a9b565b91505092915050565b6000819050919050565b610af081610add565b82525050565b6000602082019050610b0b6000830184610ae7565b92915050565b610b1a81610a72565b82525050565b6000602082019050610b356000830184610b11565b92915050565b610b4481610add565b8114610b4f57600080fd5b50565b600081359050610b6181610b3b565b92915050565b600060208284031215610b7d57610b7c610a4d565b5b6000610b8b84828501610b52565b91505092915050565b600082825260208201905092915050565b7f646964276e742073656e6420746865202073756666696369656e74206574686560008201527f7265756d00000000000000000000000000000000000000000000000000000000602082015250565b6000610c01602483610b94565b9150610c0c82610ba5565b604082019050919050565b60006020820190508181036000830152610c3081610bf4565b9050919050565b7f4e487b7100000000000000000000000000000000000000000000000000000000600052601160045260246000fd5b6000610c7182610add565b9150610c7c83610add565b9250828201905080821115610c9457610c93610c37565b5b92915050565b600081519050610ca981610b3b565b92915050565b600060208284031215610cc557610cc4610a4d565b5b6000610cd384828501610c9a565b91505092915050565b7f4e487b7100000000000000000000000000000000000000000000000000000000600052603260045260246000fd5b7f4e487b7100000000000000000000000000000000000000000000000000000000600052604160045260246000fd5b600081905092915050565b50565b6000610d55600083610d3a565b9150610d6082610d45565b600082019050919050565b6000610d7682610d48565b9150819050919050565b7f43616c6c206661696c6564000000000000000000000000000000000000000000600082015250565b6000610db6600b83610b94565b9150610dc182610d80565b602082019050919050565b60006020820190508181036000830152610de581610da9565b9050919050565b6000610df782610add565b9150610e0283610add565b9250828202610e1081610add565b91508282048414831517610e2757610e26610c37565b5b5092915050565b7f4e487b7100000000000000000000000000000000000000000000000000000000600052601260045260246000fd5b6000610e6882610add565b9150610e7383610add565b925082610e8357610e82610e2e565b5b828204905092915050565b600069ffffffffffffffffffff82169050919050565b610ead81610e8e565b8114610eb857600080fd5b50565b600081519050610eca81610ea4565b92915050565b6000819050919050565b610ee381610ed0565b8114610eee57600080fd5b50565b600081519050610f0081610eda565b92915050565b600080600080600060a08688031215610f2257610f21610a4d565b5b6000610f3088828901610ebb565b9550506020610f4188828901610ef1565b9450506040610f5288828901610c9a565b9350506060610f6388828901610c9a565b9250506080610f7488828901610ebb565b9150509295509295909350565b6000610f8c82610ed0565b9150610f9783610ed0565b9250828202610fa581610ed0565b91507f80000000000000000000000000000000000000000000000000000000000000008414600084121615610fdd57610fdc610c37565b5b8282058414831517610ff257610ff1610c37565b5b509291505056fea2646970667358221220a4651afc2c165d67597fc53df196a0daad5ca73775c717eb7b4b37b7e26ef35764736f6c634300081b0033",
  "linkReferences": {},
  "deployedLinkReferences": {}
}