{
  "_format": "hh-sol-artifact-1",
  "contractName": "StackClub",
  "sourceName": "contracts/stackClub.sol",
  "abi": [
    {
      "inputs": [],
      "stateMutability": "nonpayable",
      "type": "constructor"
    },
    {
      "inputs": [
        {
          "internalType": "address",
          "name": "memberAddress",
          "type": "address"
        }
      ],
      "name": "addMember",
      "outputs": [],
      "stateMutability": "nonpayable",
      "type": "function"
    },
    {
      "inputs": [
        {
          "internalType": "address",
          "name": "validMember",
          "type": "address"
        }
      ],
      "name": "isMember",
      "outputs": [
        {
          "internalType": "bool",
          "name": "member",
          "type": "bool"
        }
      ],
      "stateMutability": "view",
      "type": "function"
    },
    {
      "inputs": [],
      "name": "removeLastMember",
      "outputs": [],
      "stateMutability": "nonpayable",
      "type": "function"
    }
  ],
  "bytecode": "0x6080604052348015600f57600080fd5b50336000806101000a81548173ffffffffffffffffffffffffffffffffffffffff021916908373ffffffffffffffffffffffffffffffffffffffff1602179055506104918061005f6000396000f3fe608060405234801561001057600080fd5b50600436106100415760003560e01c8063359f895214610046578063a230c52414610050578063ca6d56dc14610080575b600080fd5b61004e61009c565b005b61006a6004803603810190610065919061039a565b610189565b60405161007791906103e2565b60405180910390f35b61009a6004803603810190610095919061039a565b61022d565b005b600080600090505b600180549050811015610134573373ffffffffffffffffffffffffffffffffffffffff16600182815481106100dc576100db6103fd565b5b9060005260206000200160009054906101000a900473ffffffffffffffffffffffffffffffffffffffff1673ffffffffffffffffffffffffffffffffffffffff160361012757600191505b80806001019150506100a4565b508061013f57600080fd5b60018054806101515761015061042c565b5b6001900381819060005260206000200160006101000a81549073ffffffffffffffffffffffffffffffffffffffff0219169055905550565b600080600090505b600180549050811015610226578273ffffffffffffffffffffffffffffffffffffffff16600182815481106101c9576101c86103fd565b5b9060005260206000200160009054906101000a900473ffffffffffffffffffffffffffffffffffffffff1673ffffffffffffffffffffffffffffffffffffffff1603610219576001915050610228565b8080600101915050610191565b505b919050565b600080600090505b6001805490508110156102c5573373ffffffffffffffffffffffffffffffffffffffff166001828154811061026d5761026c6103fd565b5b9060005260206000200160009054906101000a900473ffffffffffffffffffffffffffffffffffffffff1673ffffffffffffffffffffffffffffffffffffffff16036102b857600191505b8080600101915050610235565b50806102d057600080fd5b6001829080600181540180825580915050600190039060005260206000200160009091909190916101000a81548173ffffffffffffffffffffffffffffffffffffffff021916908373ffffffffffffffffffffffffffffffffffffffff1602179055505050565b600080fd5b600073ffffffffffffffffffffffffffffffffffffffff82169050919050565b60006103678261033c565b9050919050565b6103778161035c565b811461038257600080fd5b50565b6000813590506103948161036e565b92915050565b6000602082840312156103b0576103af610337565b5b60006103be84828501610385565b91505092915050565b60008115159050919050565b6103dc816103c7565b82525050565b60006020820190506103f760008301846103d3565b92915050565b7f4e487b7100000000000000000000000000000000000000000000000000000000600052603260045260246000fd5b7f4e487b7100000000000000000000000000000000000000000000000000000000600052603160045260246000fdfea2646970667358221220d6bdbd61c3c2a4e1c1bbcbff36b9862a5173f571dd5372d1cbc5baafeaf359d464736f6c634300081b0033",
  "linkReferences": {},
  "deployedLinkReferences": {}
}