{
  "_format": "hh-sol-artifact-1",
  "contractName": "VotingContract",
  "sourceName": "contracts/Voting.sol",
  "abi": [
    {
      "inputs": [
        {
          "internalType": "enum VotingContract.Choices",
          "name": "_newChoice",
          "type": "uint8"
        }
      ],
      "name": "changeVote",
      "outputs": [
        {
          "components": [
            {
              "internalType": "enum VotingContract.Choices",
              "name": "choice",
              "type": "uint8"
            },
            {
              "internalType": "address",
              "name": "voter",
              "type": "address"
            }
          ],
          "internalType": "struct VotingContract.Vote",
          "name": "",
          "type": "tuple"
        }
      ],
      "stateMutability": "nonpayable",
      "type": "function"
    },
    {
      "inputs": [
        {
          "internalType": "enum VotingContract.Choices",
          "name": "choice",
          "type": "uint8"
        }
      ],
      "name": "createVote",
      "outputs": [],
      "stateMutability": "nonpayable",
      "type": "function"
    },
    {
      "inputs": [
        {
          "internalType": "address",
          "name": "voterAddress",
          "type": "address"
        }
      ],
      "name": "findChoice",
      "outputs": [
        {
          "internalType": "enum VotingContract.Choices",
          "name": "",
          "type": "uint8"
        }
      ],
      "stateMutability": "view",
      "type": "function"
    },
    {
      "inputs": [
        {
          "internalType": "address",
          "name": "sender",
          "type": "address"
        }
      ],
      "name": "hasVoted",
      "outputs": [
        {
          "internalType": "bool",
          "name": "",
          "type": "bool"
        }
      ],
      "stateMutability": "view",
      "type": "function"
    },
    {
      "inputs": [
        {
          "internalType": "uint256",
          "name": "",
          "type": "uint256"
        }
      ],
      "name": "votes",
      "outputs": [
        {
          "internalType": "enum VotingContract.Choices",
          "name": "choice",
          "type": "uint8"
        },
        {
          "internalType": "address",
          "name": "voter",
          "type": "address"
        }
      ],
      "stateMutability": "view",
      "type": "function"
    }
  ],
  "bytecode": "0x6080604052348015600f57600080fd5b506109368061001f6000396000f3fe608060405234801561001057600080fd5b50600436106100575760003560e01c806309eef43e1461005c578063556f64dd1461008c5780635df81330146100bc57806379f3ef9c146100ed578063f7711e1d14610109575b600080fd5b6100766004803603810190610071919061060a565b610139565b6040516100839190610652565b60405180910390f35b6100a660048036038101906100a1919061060a565b610151565b6040516100b391906106e4565b60405180910390f35b6100d660048036038101906100d19190610735565b6101b1565b6040516100e4929190610771565b60405180910390f35b610107600480360381019061010291906107bf565b61020e565b005b610123600480360381019061011e91906107bf565b61030e565b6040516101309190610839565b60405180910390f35b600080610145836103f7565b91505080915050919050565b600080600061015f846103f7565b91509150806101a3576040517f08c379a000000000000000000000000000000000000000000000000000000000815260040161019a906108b1565b60405180910390fd5b816000015192505050919050565b600081815481106101c157600080fd5b906000526020600020016000915090508060000160009054906101000a900460ff16908060000160019054906101000a900473ffffffffffffffffffffffffffffffffffffffff16905082565b600061021933610139565b9050801561022d57600061022c57600080fd5b5b6000604051806040016040528084600181111561024d5761024c61066d565b5b81526020013373ffffffffffffffffffffffffffffffffffffffff168152509080600181540180825580915050600190039060005260206000200160009091909190915060008201518160000160006101000a81548160ff021916908360018111156102bc576102bb61066d565b5b021790555060208201518160000160016101000a81548173ffffffffffffffffffffffffffffffffffffffff021916908373ffffffffffffffffffffffffffffffffffffffff16021790555050505050565b610316610565565b60005b6000805490508110156103f1573373ffffffffffffffffffffffffffffffffffffffff1660008281548110610351576103506108d1565b5b9060005260206000200160000160019054906101000a900473ffffffffffffffffffffffffffffffffffffffff1673ffffffffffffffffffffffffffffffffffffffff16036103e45782600082815481106103af576103ae6108d1565b5b9060005260206000200160000160006101000a81548160ff021916908360018111156103de576103dd61066d565b5b02179055505b8080600101915050610319565b50919050565b6103ff610565565b600080600090505b60008054905081101561055e578373ffffffffffffffffffffffffffffffffffffffff166000828154811061043f5761043e6108d1565b5b9060005260206000200160000160019054906101000a900473ffffffffffffffffffffffffffffffffffffffff1673ffffffffffffffffffffffffffffffffffffffff1603610551576000818154811061049c5761049b6108d1565b5b906000526020600020016001816040518060400160405290816000820160009054906101000a900460ff1660018111156104d9576104d861066d565b5b60018111156104eb576104ea61066d565b5b81526020016000820160019054906101000a900473ffffffffffffffffffffffffffffffffffffffff1673ffffffffffffffffffffffffffffffffffffffff1673ffffffffffffffffffffffffffffffffffffffff168152505091509250925050610560565b8080600101915050610407565b505b915091565b6040518060400160405280600060018111156105845761058361066d565b5b8152602001600073ffffffffffffffffffffffffffffffffffffffff1681525090565b600080fd5b600073ffffffffffffffffffffffffffffffffffffffff82169050919050565b60006105d7826105ac565b9050919050565b6105e7816105cc565b81146105f257600080fd5b50565b600081359050610604816105de565b92915050565b6000602082840312156106205761061f6105a7565b5b600061062e848285016105f5565b91505092915050565b60008115159050919050565b61064c81610637565b82525050565b60006020820190506106676000830184610643565b92915050565b7f4e487b7100000000000000000000000000000000000000000000000000000000600052602160045260246000fd5b600281106106ad576106ac61066d565b5b50565b60008190506106be8261069c565b919050565b60006106ce826106b0565b9050919050565b6106de816106c3565b82525050565b60006020820190506106f960008301846106d5565b92915050565b6000819050919050565b610712816106ff565b811461071d57600080fd5b50565b60008135905061072f81610709565b92915050565b60006020828403121561074b5761074a6105a7565b5b600061075984828501610720565b91505092915050565b61076b816105cc565b82525050565b600060408201905061078660008301856106d5565b6107936020830184610762565b9392505050565b600281106107a757600080fd5b50565b6000813590506107b98161079a565b92915050565b6000602082840312156107d5576107d46105a7565b5b60006107e3848285016107aa565b91505092915050565b6107f5816106c3565b82525050565b610804816105cc565b82525050565b60408201600082015161082060008501826107ec565b50602082015161083360208501826107fb565b50505050565b600060408201905061084e600083018461080a565b92915050565b600082825260208201905092915050565b7f566f74657220686173206e6f742063617374206120766f746500000000000000600082015250565b600061089b601983610854565b91506108a682610865565b602082019050919050565b600060208201905081810360008301526108ca8161088e565b9050919050565b7f4e487b7100000000000000000000000000000000000000000000000000000000600052603260045260246000fdfea26469706673582212202ae7b31f8c54ce28217e724d9c6652b43419ac7aed2b919b983b6bb50430471064736f6c634300081b0033",
  "linkReferences": {},
  "deployedLinkReferences": {}
}